{
    "RJUMP_MaxOffset_d0g0v0_Prague" : {
        "_info" : {
            "comment" : "",
            "filling-rpc-server" : "evmone-t8n 0.12.0-dev+commit.25a5271a.dirty",
            "filling-tool-version" : "retesteth-0.3.2-cancun+commit.ebcf035f.Linux.g++",
            "generatedTestHash" : "598b7834ad7a3749cde5132f3016772fedd7f17f9ae99dcd63982e7ad4f1082d",
            "lllcversion" : "Version: 0.5.14-develop.2021.4.29+commit.14c9d5de.Linux.clang",
            "solidity" : "Version: 0.8.17-develop.2022.9.30+commit.8df45f5f.Linux.clang",
            "source" : "src/EIPTestsFiller/StateTests/stEOF/stEIP4200/RJUMP_MaxOffsetFiller.yml",
            "sourceHash" : "c50158b4ba9557bffa252ddd5114f125aa9f540da0599b88a96fec179b8e1ac1"
        },
        "blocks" : [
            {
                "blockHeader" : {
                    "baseFeePerGas" : "0x0a",
                    "blobGasUsed" : "0x00",
                    "bloom" : "0x00000000000000000000000000000000000000000000000000000000000000000000000000000000000000000000000000000000000000000000000000000000000000000000000000000000000000000000000000000000000000000000000000000000000000000000000000000000000000000000000000000000000000000000000000000000000000000000000000000000000000000000000000000000000000000000000000000000000000000000000000000000000000000000000000000000000000000000000000000000000000000000000000000000000000000000000000000000000000000000000000000000000000000000000000000000",
                    "coinbase" : "0x2adc25665018aa1fe0e6bc666dac8fc2697ff9ba",
                    "difficulty" : "0x00",
                    "excessBlobGas" : "0x00",
                    "extraData" : "0x00",
                    "gasLimit" : "0x05500000",
                    "gasUsed" : "0x5208",
                    "hash" : "0x34c5b929124ee857076f227cfd66ebd71fdefad495535e3767a9133b51c26990",
                    "mixHash" : "0x0000000000000000000000000000000000000000000000000000000000020000",
                    "nonce" : "0x0000000000000000",
                    "number" : "0x01",
                    "parentBeaconBlockRoot" : "0x0000000000000000000000000000000000000000000000000000000000000000",
                    "parentHash" : "0x1efb7aa630e297a8a480b26c68a607cdefe0436b160efb43cc49d61a84b731a1",
                    "receiptTrie" : "0x056b23fbba480696b65fe5a59b8f2148a1299103c4f57df839233af2cf4ca2d2",
                    "stateRoot" : "0x4e45d3918a514c5abe1822ee5dafd0aa3cbb519e8d3617e46e76d381a1a50a90",
                    "timestamp" : "0x03e8",
                    "transactionsTrie" : "0x9dd289e39c0f3c60bacc63eec0e84d263b70642c46c5733938be86ff9350b308",
                    "uncleHash" : "0x1dcc4de8dec75d7aab85b567b6ccd41ad312451b948a7413f0a142fd40d49347",
                    "withdrawalsRoot" : "0x56e81f171bcc55a6ff8345e692c0f86e5b48e01b996cadc001622fb5e363b421"
                },
                "rlp" : "0xf902a3f9023aa01efb7aa630e297a8a480b26c68a607cdefe0436b160efb43cc49d61a84b731a1a01dcc4de8dec75d7aab85b567b6ccd41ad312451b948a7413f0a142fd40d49347942adc25665018aa1fe0e6bc666dac8fc2697ff9baa04e45d3918a514c5abe1822ee5dafd0aa3cbb519e8d3617e46e76d381a1a50a90a09dd289e39c0f3c60bacc63eec0e84d263b70642c46c5733938be86ff9350b308a0056b23fbba480696b65fe5a59b8f2148a1299103c4f57df839233af2cf4ca2d2b9010000000000000000000000000000000000000000000000000000000000000000000000000000000000000000000000000000000000000000000000000000000000000000000000000000000000000000000000000000000000000000000000000000000000000000000000000000000000000000000000000000000000000000000000000000000000000000000000000000000000000000000000000000000000000000000000000000000000000000000000000000000000000000000000000000000000000000000000000000000000000000000000000000000000000000000000000000000000000000000000000000000000000000000000000000000000800184055000008252088203e800a000000000000000000000000000000000000000000000000000000000000200008800000000000000000aa056e81f171bcc55a6ff8345e692c0f86e5b48e01b996cadc001622fb5e363b4218080a00000000000000000000000000000000000000000000000000000000000000000f862f860800a83e4e1c094b94f5374fce5edbc8e2a8697c15331677e6ebf0b80801ba07c94e62687323becbaa8b3ceac9a4bac4eda2836456f8a4cc3965b597752eddaa05701b7e30347eb8405502fa12388189aa244a0671c959026f636b4d4e06dbd9fc0c0",
                "transactions" : [
                    {
                        "data" : "0x",
                        "gasLimit" : "0xe4e1c0",
                        "gasPrice" : "0x0a",
                        "nonce" : "0x00",
                        "r" : "0x7c94e62687323becbaa8b3ceac9a4bac4eda2836456f8a4cc3965b597752edda",
                        "s" : "0x5701b7e30347eb8405502fa12388189aa244a0671c959026f636b4d4e06dbd9f",
                        "sender" : "0xa94f5374fce5edbc8e2a8697c15331677e6ebf0b",
                        "to" : "0xb94f5374fce5edbc8e2a8697c15331677e6ebf0b",
                        "v" : "0x1b",
                        "value" : "0x00"
                    }
                ],
                "uncleHeaders" : [
                ],
                "withdrawals" : [
                ]
            }
        ],
        "genesisBlockHeader" : {
            "baseFeePerGas" : "0x0b",
            "blobGasUsed" : "0x00",
            "bloom" : "0x00000000000000000000000000000000000000000000000000000000000000000000000000000000000000000000000000000000000000000000000000000000000000000000000000000000000000000000000000000000000000000000000000000000000000000000000000000000000000000000000000000000000000000000000000000000000000000000000000000000000000000000000000000000000000000000000000000000000000000000000000000000000000000000000000000000000000000000000000000000000000000000000000000000000000000000000000000000000000000000000000000000000000000000000000000000",
            "coinbase" : "0x2adc25665018aa1fe0e6bc666dac8fc2697ff9ba",
            "difficulty" : "0x00",
            "excessBlobGas" : "0x00",
            "extraData" : "0x00",
            "gasLimit" : "0x05500000",
            "gasUsed" : "0x00",
            "hash" : "0x1efb7aa630e297a8a480b26c68a607cdefe0436b160efb43cc49d61a84b731a1",
            "mixHash" : "0x0000000000000000000000000000000000000000000000000000000000020000",
            "nonce" : "0x0000000000000000",
            "number" : "0x00",
            "parentBeaconBlockRoot" : "0x0000000000000000000000000000000000000000000000000000000000000000",
            "parentHash" : "0x0000000000000000000000000000000000000000000000000000000000000000",
            "receiptTrie" : "0x56e81f171bcc55a6ff8345e692c0f86e5b48e01b996cadc001622fb5e363b421",
            "stateRoot" : "0x8d6d2fd95c74aa96753ce55924361f23c1f8ff4574e017af8ddf2ccb585f9bc0",
            "timestamp" : "0x00",
            "transactionsTrie" : "0x56e81f171bcc55a6ff8345e692c0f86e5b48e01b996cadc001622fb5e363b421",
            "uncleHash" : "0x1dcc4de8dec75d7aab85b567b6ccd41ad312451b948a7413f0a142fd40d49347",
            "withdrawalsRoot" : "0x56e81f171bcc55a6ff8345e692c0f86e5b48e01b996cadc001622fb5e363b421"
        },
        "genesisRLP" : "0xf9023cf90236a00000000000000000000000000000000000000000000000000000000000000000a01dcc4de8dec75d7aab85b567b6ccd41ad312451b948a7413f0a142fd40d49347942adc25665018aa1fe0e6bc666dac8fc2697ff9baa08d6d2fd95c74aa96753ce55924361f23c1f8ff4574e017af8ddf2ccb585f9bc0a056e81f171bcc55a6ff8345e692c0f86e5b48e01b996cadc001622fb5e363b421a056e81f171bcc55a6ff8345e692c0f86e5b48e01b996cadc001622fb5e363b421b901000000000000000000000000000000000000000000000000000000000000000000000000000000000000000000000000000000000000000000000000000000000000000000000000000000000000000000000000000000000000000000000000000000000000000000000000000000000000000000000000000000000000000000000000000000000000000000000000000000000000000000000000000000000000000000000000000000000000000000000000000000000000000000000000000000000000000000000000000000000000000000000000000000000000000000000000000000000000000000000000000000000000000000000000000000000080808405500000808000a000000000000000000000000000000000000000000000000000000000000200008800000000000000000ba056e81f171bcc55a6ff8345e692c0f86e5b48e01b996cadc001622fb5e363b4218080a00000000000000000000000000000000000000000000000000000000000000000c0c0c0",
        "lastblockhash" : "0x34c5b929124ee857076f227cfd66ebd71fdefad495535e3767a9133b51c26990",
        "network" : "Prague",
        "postState" : {
            "0xa94f5374fce5edbc8e2a8697c15331677e6ebf0b" : {
                "balance" : "0x0be88db0",
                "code" : "0x",
                "nonce" : "0x01",
                "storage" : {
                }
            }
        },
        "pre" : {
            "0xa94f5374fce5edbc8e2a8697c15331677e6ebf0b" : {
                "balance" : "0x0bebc200",
                "code" : "0x",
                "nonce" : "0x00",
                "storage" : {
                }
            },
            "0xb94f5374fce5edbc8e2a8697c15331677e6ebf0b" : {
                "balance" : "0x00",
                "code" : "0x",
                "nonce" : "0x00",
                "storage" : {
                }
            }
        },
        "sealEngine" : "NoProof"
    }
}