{
    "RJUMP_MaxOffset" : {
        "_info" : {
            "comment" : "",
            "filling-rpc-server" : "evmone-t8n 0.12.0-dev+commit.25a5271a.dirty",
            "filling-tool-version" : "retesteth-0.3.2-cancun+commit.ebcf035f.Linux.g++",
            "generatedTestHash" : "4485944e00bf6a14ecfe054c14fe408dcd1acab66899f5f43d6d6aefde8ae172",
            "lllcversion" : "Version: 0.5.14-develop.2021.4.29+commit.14c9d5de.Linux.clang",
            "solidity" : "Version: 0.8.17-develop.2022.9.30+commit.8df45f5f.Linux.clang",
            "source" : "src/EIPTestsFiller/StateTests/stEOF/stEIP4200/RJUMP_MaxOffsetFiller.yml",
            "sourceHash" : "c50158b4ba9557bffa252ddd5114f125aa9f540da0599b88a96fec179b8e1ac1"
        },
        "env" : {
            "currentBaseFee" : "0x0a",
            "currentCoinbase" : "0x2adc25665018aa1fe0e6bc666dac8fc2697ff9ba",
            "currentDifficulty" : "0x020000",
            "currentExcessBlobGas" : "0x00",
            "currentGasLimit" : "0x05500000",
            "currentNumber" : "0x01",
            "currentRandom" : "0x0000000000000000000000000000000000000000000000000000000000020000",
            "currentTimestamp" : "0x03e8"
        },
        "post" : {
            "Prague" : [
                {
                    "hash" : "0x4e45d3918a514c5abe1822ee5dafd0aa3cbb519e8d3617e46e76d381a1a50a90",
                    "indexes" : {
                        "data" : 0,
                        "gas" : 0,
                        "value" : 0
                    },
                    "logs" : "0x1dcc4de8dec75d7aab85b567b6ccd41ad312451b948a7413f0a142fd40d49347",
                    "txbytes" : "0xf860800a83e4e1c094b94f5374fce5edbc8e2a8697c15331677e6ebf0b80801ba07c94e62687323becbaa8b3ceac9a4bac4eda2836456f8a4cc3965b597752eddaa05701b7e30347eb8405502fa12388189aa244a0671c959026f636b4d4e06dbd9f"
                }
            ]
        },
        "pre" : {
            "0xa94f5374fce5edbc8e2a8697c15331677e6ebf0b" : {
                "balance" : "0x0bebc200",
                "code" : "0x",
                "nonce" : "0x00",
                "storage" : {
                }
            },
            "0xb94f5374fce5edbc8e2a8697c15331677e6ebf0b" : {
                "balance" : "0x00",
                "code" : "0x",
                "nonce" : "0x00",
                "storage" : {
                }
            }
        },
        "transaction" : {
            "data" : [
                "0x"
            ],
            "gasLimit" : [
                "0xe4e1c0"
            ],
            "gasPrice" : "0x0a",
            "nonce" : "0x00",
            "secretKey" : "0x45a915e4d060149eb4365960e6a7a45f334393093061116b197e3240065ff2d8",
            "sender" : "0xa94f5374fce5edbc8e2a8697c15331677e6ebf0b",
            "to" : "0xb94f5374fce5edbc8e2a8697c15331677e6ebf0b",
            "value" : [
                "0x00"
            ]
        }
    }
}